:100000000C946C000C9494000C9494000C94940048
:100010000C9494000C9494000C9494000C94940010
:100020000C9494000C9494000C9494000C94940000
:100030000C9494000C9494000C9494000C949400F0
:100040000C9451030C9494000C941F030C94F9022B
:100050000C9494000C9494000C9494000C949400D0
:100060000C9494000C94940005A84CCDB2D44EB9D5
:100070003836A9020C50B9918688083CA6AAAA2A4B
:10008000BE000000803F00000000240027002A007E
:1000900000000000250028002B00040404040404D0
:1000A0000404020202020202030303030303010227
:1000B00004081020408001020408102001020408F6
:1000C00010200000000800020100000304070000E7
:1000D000000000000000370511241FBECFEFD8E05C
:1000E000DEBFCDBF21E0A8E1B1E001C01D92A03C80
:1000F000B207E1F711E0A0E0B1E0EAECF0E102C004
:1001000005900D92A831B107D9F710E0CCE6D0E008
:1001100004C02197FE010E946405CB36D107C9F7C0
:100120000E949B030C9463080C940000CF92DF9212
:10013000EF92FF920F931F93CF93DF936C017A019D
:100140008B01C0E0D0E0CE15DF0589F0D8016D91BC
:100150008D01D601ED91FC910190F081E02DC60159
:100160000995892B11F47E0102C02196ECCFC701BD
:10017000DF91CF911F910F91FF90EF90DF90CF9083
:100180000895FC01918D828D981761F0828DDF01B9
:10019000A80FB11D5D968C91928D9F5F9F73928F7A
:1001A00090E008958FEF9FEF0895FC01918D828D6F
:1001B000981731F0828DE80FF11D858D90E008953C
:1001C0008FEF9FEF0895FC01918D228D892F90E094
:1001D000805C9F4F821B91098F739927089583E25A
:1001E00091E00E94E30021E0892B09F420E0822FB6
:1001F0000895FC01848DDF01A80FB11DA35ABF4FE4
:100200002C91848D90E001968F739927848FA68915
:10021000B7892C93A089B1898C9180648C93938D3C
:10022000848D981306C00288F389E02D80818F7D2C
:1002300080830895EF92FF920F931F93CF93DF93E4
:10024000EC0181E0888F9B8D8C8D981305C0E88927
:10025000F989808185FD24C0F62E0B8D10E00F5F9B
:100260001F4F0F731127E02E8C8DE8120CC00FB6B4
:1002700007FCFACFE889F989808185FFF5CFCE01A7
:100280000E94F900F1CF8B8DFE01E80FF11DE35ABA
:10029000FF4FF0820B8FEA89FB898081806207C063
:1002A000EE89FF896083E889F98980818064808391
:1002B00081E090E0DF91CF911F910F91FF90EF903F
:1002C0000895CF93DF93EC01888D8823C9F0EA89E4
:1002D000FB89808185FD05C0A889B9898C9186FD3F
:1002E0000FC00FB607FCF5CF808185FFF2CFA8893C
:1002F000B9898C9185FFEDCFCE010E94F900E7CF3F
:10030000DF91CF91089580E090E0892B29F00E9441
:10031000EF0081110C940000089590E0FC01EE5371
:10032000FF4F3491FC01E255FF4F2491FC01E6564A
:10033000FF4FE491EE2309F43BC0332339F133300E
:1003400091F038F43130A9F0323001F584B58F7D69
:1003500012C0373091F03830A1F03430B9F48091C8
:1003600080008F7D03C0809180008F778093800014
:100370000DC084B58F7784BD09C08091B0008F77A0
:1003800003C08091B0008F7D8093B000F0E0EE0F4D
:10039000FF1FE057FF4FA591B4918FB7F894EC91F0
:1003A000611103C020952E2301C02E2B2C938FBFEB
:1003B0000895482F50E0FA01E255FF4F9491FA0159
:1003C000E656FF4F2491222399F030E0220F331F8D
:1003D000F901EA57FF4FA591B491F901E057FF4F9A
:1003E000259134912FB7F894EC91E92BEC932FBF22
:1003F0006115710511F460E004C06F3F710519F4D7
:1004000061E00C948D01FA01EE53FF4FE491E3306B
:10041000F9F048F4E130B9F0E230A1F584B580623A
:1004200084BD68BD0895E730E9F0E83019F1E430A3
:1004300049F58091800080628093800070938B00EA
:1004400060938A00089584B5806884BD67BD08956F
:100450008091800080688093800070938900609311
:10046000880008958091B00080688093B000609308
:10047000B30008958091B00080628093B0006093D3
:10048000B4000895603871050CF0BACFB4CF3FB70F
:10049000F89480911D0190911E01A0911F01B091CF
:1004A000200126B5A89B05C02F3F19F00196A11D7C
:1004B000B11D3FBFBA2FA92F982F8827820F911DFA
:1004C000A11DB11DBC01CD0142E0660F771F881F41
:1004D000991F4A95D1F708958F929F92AF92BF923C
:1004E000CF92DF92EF92FF926B017C010E94470254
:1004F0004B015C01C114D104E104F104F1F00E944C
:100500004702DC01CB0188199909AA09BB09883E79
:100510009340A105B10570F321E0C21AD108E108AA
:10052000F10888EE880E83E0981EA11CB11CC1144E
:10053000D104E104F10419F7DDCFFF90EF90DF90D3
:10054000CF90BF90AF909F908F9008958F929F9281
:10055000AF92BF920F931F93CF93DF93CDB7DEB7C8
:10056000A1970FB6F894DEBF0FBECDBF19A24230DF
:1005700008F44AE08E010F5D1F4F842E912CA12CB0
:10058000B12CA50194010E943208E62FB901CA01DD
:1005900001501109EA3014F4E05D01C0E95CD801B2
:1005A000EC93232B242B252B61F70115110571F0FA
:1005B000F80101900020E9F73197AF01401B510B82
:1005C000B80183E291E00E94960002C080E090E0D2
:1005D000A1960FB6F894DEBF0FBECDBFDF91CF91CD
:1005E0001F910F91BF90AF909F908F9008950E94A0
:1005F00003081F920F920FB60F9211242F933F936F
:100600004F935F936F937F938F939F93AF93BF931A
:10061000EF93FF9383E291E00E94F900FF91EF9145
:10062000BF91AF919F918F917F916F915F914F910A
:100630003F912F910F900FBE0F901F9018951F9212
:100640000F920FB60F9211242F938F939F93EF93D6
:10065000FF93E0913301F09134018081E091390101
:10066000F0913A0182FD12C0908180913C018F5F30
:100670008F7320913D01821751F0E0913C01F0E031
:10068000ED5DFE4F958F80933C0101C08081FF910D
:10069000EF919F918F912F910F900FBE0F901F9010
:1006A00018951F920F920FB60F9211242F933F931C
:1006B0008F939F93AF93BF938091190190911A01EB
:1006C000A0911B01B0911C013091180123E0230F70
:1006D0002D3720F40196A11DB11D05C026E8230F7A
:1006E0000296A11DB11D20931801809319019093CA
:1006F0001A01A0931B01B0931C0180911D019091E0
:100700001E01A0911F01B09120010196A11DB11DF4
:1007100080931D0190931E01A0931F01B0932001AF
:10072000BF91AF919F918F913F912F910F900FBEED
:100730000F901F901895789484B5826084BD84B51D
:10074000816084BD85B5826085BD85B5816085BDCC
:1007500080916E00816080936E0010928100809184
:10076000810082608093810080918100816080930C
:100770008100809180008160809380008091B10031
:1007800084608093B1008091B00081608093B0005C
:1007900080917A00846080937A0080917A008260F0
:1007A00080937A0080917A00816080937A008091B2
:1007B0007A00806880937A001092C100E091330142
:1007C000F091340182E08083E0912F01F0913001BB
:1007D0001082E0913101F09132018FEC8083109210
:1007E0003B01E0913701F091380186E08083E09190
:1007F0003501F0913601808180618083E09135017F
:10080000F0913601808188608083E0913501F0911C
:100810003601808180688083E0913501F091360156
:1008200080818F7D808380EDC82E87E0D82EE12CDB
:10083000F12CCFEFD0E083E291E00E94E3001816A4
:1008400019060CF011C183E291E00E94C1008133CE
:10085000B1F11CF4803371F007C1823309F451C047
:10086000833309F494C000C183E291E00E94C10087
:10087000C09729F56FEF70E083E00E94D90164E62C
:1008800070E080E090E00E946C0260E070E083E045
:100890000E94D90164E670E080E090E00E946C0262
:1008A00083E291E00E94E30018161906ECF2E2CF11
:1008B00083E291E00E94E30018161906E4F010921A
:1008C00022011092210100912101109122010F3F7C
:1008D000110574F7B80183E00E94D9016AE070E065
:1008E00080E090E00E946C020F5F1F4F1093220186
:1008F00000932101E8CF83E291E00E94C100C197FB
:10090000F1F2109222011092210100912101109127
:1009100022010F3F11058CF4B80183E00E94D90138
:100920006AE070E080E090E00E946C020F5F1F4F71
:100930001093220100932101E8CFD0932201C093AC
:1009400021010091210110912201101611068CF451
:10095000B80183E00E94D9016AE070E080E090E095
:100960000E946C0201501109109322010093210191
:10097000E8CF83E291E00E94E300181619060CF616
:1009800083E291E00E94C100C29709F4BACF1092AD
:100990002201109221016091210170912201683E93
:1009A00083E078070CF051C0072E000C880B990BE0
:1009B0000E94140620ED3FE049EC50E40E94A0069E
:1009C00020E030E04AE754E40E946A050E940D07E7
:1009D00020E030E04AE754E40E94A0060E94DC05D3
:1009E000CB01770FAA0BBB0B9C01AD0128513C4FEB
:1009F0004F4F5F4FAFEFB0E00E942708A70196016D
:100A00000E940808B90183E00E94D90161E070E00A
:100A100080E090E00E946C024AE061E070E080E0DB
:100A200090E00E94A60242E050E064E171E083E2BF
:100A300091E00E94960080912101909122010196FF
:100A40009093220180932101A6CF83E291E00E943E
:100A5000E300181619060CF09ACF83E291E00E9489
:100A6000C100C39709F493CF0E948301E4CEE3E26F
:100A7000F1E01382128288EE93E0A0E0B0E084837C
:100A80009583A683B78388E091E09183808385EC8A
:100A900090E09587848784EC90E09787868780EC48
:100AA00090E0918B808B81EC90E0938B828B82EC39
:100AB00090E0958B848B86EC90E0978B868B118EE3
:100AC000128E138E148E0895EE0FFF1F0590F49171
:100AD000E02D09940E947E050C9466060E945F0634
:100AE00058F00E94580640F029F45F3F29F00C941A
:100AF0004F0651110C949A060C9455060E947706E5
:100B000068F39923B1F3552391F3951B550BBB273C
:100B1000AA2762177307840738F09F5F5F4F220F81
:100B2000331F441FAA1FA9F335D00E2E3AF0E0E878
:100B300032D091505040E695001CCAF72BD0FE2FC2
:100B400029D0660F771F881FBB1F26173707480756
:100B5000AB07B0E809F0BB0B802DBF01FF2793580E
:100B60005F4F3AF09E3F510578F00C944F060C947D
:100B70009A065F3FE4F3983ED4F3869577956795A0
:100B8000B795F7959F5FC9F7880F911D9695879543
:100B900097F90895E1E0660F771F881FBB1F621762
:100BA00073078407BA0720F0621B730B840BBA0B20
:100BB000EE1F88F7E09508950E94E3056894B1114F
:100BC0000C949A0608950E947F0688F09F5798F02B
:100BD000B92F9927B751B0F0E1F0660F771F881F42
:100BE000991F1AF0BA95C9F714C0B13091F00E945C
:100BF0009906B1E008950C949906672F782F8827FD
:100C0000B85F39F0B93FCCF3869577956795B39582
:100C1000D9F73EF490958095709561957F4F8F4FF1
:100C20009F4F0895E89409C097FB3EF490958095F6
:100C3000709561957F4F8F4F9F4F9923A9F0F92FA2
:100C400096E9BB279395F695879577956795B79520
:100C5000F111F8CFFAF4BB0F11F460FF1BC06F5F06
:100C60007F4F8F4F9F4F16C0882311F096E911C018
:100C7000772321F09EE8872F762F05C0662371F039
:100C800096E8862F70E060E02AF09A95660F771F4D
:100C9000881FDAF7880F9695879597F9089597F941
:100CA0009F6780E870E060E008959FEF80EC089512
:100CB00000240A941616170618060906089500243B
:100CC0000A9412161306140605060895092E0394B5
:100CD000000C11F4882352F0BB0F40F4BF2B11F429
:100CE00060FF04C06F5F7F4F8F4F9F4F089557FD88
:100CF0009058440F551F59F05F3F71F04795880F8A
:100D000097FB991F61F09F3F79F087950895121620
:100D100013061406551FF2CF4695F1DF08C01616CC
:100D200017061806991FF1CF86957105610508947D
:100D30000895E894BB2766277727CB0197F9089594
:100D40000E94B3060C9466060E94580638F00E9472
:100D50005F0620F0952311F00C944F060C94550675
:100D600011240C949A060E94770670F3959FC1F3A4
:100D7000950F50E0551F629FF001729FBB27F00D49
:100D8000B11D639FAA27F00DB11DAA1F649F66279E
:100D9000B00DA11D661F829F2227B00DA11D621FED
:100DA000739FB00DA11D621F839FA00D611D221FA7
:100DB000749F3327A00D611D231F849F600D211D8B
:100DC000822F762F6A2F11249F5750409AF0F1F00E
:100DD00088234AF0EE0FFF1FBB1F661F771F881F77
:100DE00091505040A9F79E3F510580F00C944F065A
:100DF0000C949A065F3FE4F3983ED4F3869577957A
:100E00006795B795F795E7959F5FC1F7FE2B880F1C
:100E1000911D9695879597F908959F930E941707BE
:100E20000F9007FCEE5F0C9440070C9455060E944F
:100E30007F06D8F3E894E0E0BB279F57F0F02AED57
:100E40003FE049EC06C0EE0FBB0F661F771F881FFF
:100E500028F0B23A62077307840728F0B25A620B8F
:100E6000730B840BE3959A9572F7803830F49A955A
:100E7000BB0F661F771F881FD2F790480C94BC07E2
:100E8000EF93E0FF07C0A2EA2AED3FE049EC5FEBF9
:100E90000E9465070E9466060F90039401FC90581B
:100EA000E8E6F0E00C94C8070E94580638F00E946B
:100EB0005F0620F039F49F3F19F426F40C94550690
:100EC0000EF4E095E7FB0C944F06E92F0E9477069D
:100ED00058F3BA17620773078407950720F079F46F
:100EE000A6F50C9499060EF4E0950B2EBA2FA02DC2
:100EF0000B01B90190010C01CA01A0011124FF27C7
:100F0000591B99F0593F50F4503E68F11A16F040C1
:100F1000A22F232F342F4427585FF3CF46953795C0
:100F20002795A795F0405395C9F77EF41F16BA0B85
:100F3000620B730B840BBAF09150A1F0FF0FBB1F33
:100F4000661F771F881FC2F70EC0BA0F621F731F7C
:100F5000841F48F4879577956795B795F7959E3FD9
:100F600008F0B0CF9395880F08F09927EE0F97956A
:100F7000879508959F3F31F0915020F4879577959C
:100F80006795B795880F911D9695879597F9089560
:100F90009F938F937F936F93FF93EF939B01AC018C
:100FA0000E94A006EF91FF910E94DC072F913F91D4
:100FB0004F915F910C94A006DF93CF931F930F93F3
:100FC000FF92EF92DF927B018C01689406C0DA2ECB
:100FD000EF010E94B306FE01E894A5912591359199
:100FE00045915591A6F3EF010E946507FE01970117
:100FF000A801DA9469F7DF90EF90FF900F911F91AD
:10100000CF91DF91089581E090E0F8940C9463080B
:10101000052E97FB1EF400940E941F0857FD07D071
:101020000E94320807FC03D04EF40C941F08509520
:101030004095309521953F4F4F4F5F4F08959095C4
:101040008095709561957F4F8F4F9F4F08950E94B7
:101050005408A59F900DB49F900DA49F800D911DE5
:1010600011240895A1E21A2EAA1BBB1BFD010DC07D
:10107000AA1FBB1FEE1FFF1FA217B307E407F50748
:1010800020F0A21BB30BE40BF50B661F771F881F24
:10109000991F1A9469F760957095809590959B01BA
:1010A000AC01BD01CF010895A29FB001B39FC00163
:1010B000A39F700D811D1124911DB29F700D811D84
:0A10C0001124911D0895F894FFCF4C
:1010CA0001000000000000001A019600E300C100C0
:0810DA00D50061010D0A0000C0
:107E0000112484B714BE81FFF0D085E080938100F7
:107E100082E08093C00088E18093C10086E0809377
:107E2000C20080E18093C4008EE0C9D0259A86E02C
:107E300020E33CEF91E0309385002093840096BBD3
:107E4000B09BFECF1D9AA8958150A9F7CC24DD24C4
:107E500088248394B5E0AB2EA1E19A2EF3E0BF2EE7
:107E6000A2D0813461F49FD0082FAFD0023811F036
:107E7000013811F484E001C083E08DD089C08234E0
:107E800011F484E103C0853419F485E0A6D080C0E4
:107E9000853579F488D0E82EFF2485D0082F10E0AE
:107EA000102F00270E291F29000F111F8ED06801E7
:107EB0006FC0863521F484E090D080E0DECF843638
:107EC00009F040C070D06FD0082F6DD080E0C81688
:107ED00080E7D80618F4F601B7BEE895C0E0D1E017
:107EE00062D089930C17E1F7F0E0CF16F0E7DF06D8
:107EF00018F0F601B7BEE89568D007B600FCFDCFD4
:107F0000A601A0E0B1E02C9130E011968C91119780
:107F100090E0982F8827822B932B1296FA010C0160
:107F200087BEE89511244E5F5F4FF1E0A038BF0790
:107F300051F7F601A7BEE89507B600FCFDCF97BE46
:107F4000E89526C08437B1F42ED02DD0F82E2BD052
:107F50003CD0F601EF2C8F010F5F1F4F84911BD097
:107F6000EA94F801C1F70894C11CD11CFA94CF0C13
:107F7000D11C0EC0853739F428D08EE10CD085E9AC
:107F80000AD08FE07ACF813511F488E018D01DD067
:107F900080E101D065CF982F8091C00085FFFCCF94
:107FA0009093C60008958091C00087FFFCCF809118
:107FB000C00084FD01C0A8958091C6000895E0E648
:107FC000F0E098E1908380830895EDDF803219F02E
:107FD00088E0F5DFFFCF84E1DECF1F93182FE3DFCA
:107FE0001150E9F7F2DF1F91089580E0E8DFEE27F6
:047FF000FF270994CA
:027FFE00040479
:0400000300007E007B
:00000001FF
